:020000040800F2
:10000000C86D002045010008FD330008591E000896
:100010001B330008B1150008314F00080000000034
:10002000000000000000000000000000B5430008D0
:100030001517000800000000F140000821450008E5
:100040005F0100085F0100085F0100085F01000810
:100050005F0100085F0100085F0100085F01000800
:100060005F0100085F0100085F0100085F010008F0
:100070005F0100085F0100085F0100085F010008E0
:100080005F0100085F0100085F0100085F010008D0
:100090005F0100085F0100085F0100085F010008C0
:1000A0005F0100085F0100085F0100085F010008B0
:1000B0005F0100089D470008254800085F0100080F
:1000C0005F0100085F0100085F0100085F01000890
:1000D0005F010008B54900083D4A0008D54A0008FC
:1000E0005F0100085F0100085F0100085F01000870
:1000F0005F0100085F0100085F0100085F01000860
:100100005F0100085F0100085F0100085F0100084F
:100110005F0100085F0100085F0100085F0100083F
:100120005F0100085F0100085F0100085F0100082F
:10013000DFF80CD000F08CFF00480047C5640008D1
:10014000C86D00200648804706480047FEE7FEE7E6
:10015000FEE7FEE7FEE7FEE7FEE7FEE7FEE7FEE777
:100160005545000831010008A0F14101192900D8C6
:100170002030704740EA01039B0703D009E008C91B
:10018000121F08C0042AFAD203E011F8013B00F85C
:10019000013B521EF9D27047D2B201E000F8012BA8
:1001A000491EFBD270470022F6E710B513460A46F7
:1001B00004461946FFF7F0FF204610BD421E12F814
:1001C000013F002BFBD111F8013B02F8013B002B52
:1001D000F9D1704730B505462A460B4612F8010B97
:1001E00013F8014B08B1A042F8D01CB1002802D08E
:1001F0006D1CF1E7284630BDCAB2401E10F8011F41
:100200008A4202D00029F9D100207047421C10F820
:10021000011B0029FBD1801A704710B5002200E0B5
:10022000521C835C8C5CA34201D1002BF8D1D8B264
:10023000E1B2401A10BD10B5044600E0401C03783E
:10024000002BFBD100E0401C521E04D311F8013BEF
:100250000370002BF7D100210170204610BD30B58E
:1002600005460020034600E05B1C934205D2EC5C8F
:10027000C85C201A01D1002CF6D130BD2DE9FF4F0A
:10028000087883B09946FF2805D0491C2D2804D052
:100290000024002008E000200BE00124F9E700EB37
:1002A000800003EB4000491C0B78FF2BF7D104B111
:1002B000404200230293147819461D462D2C01D08C
:1002C0002B2C04D1521C2D2C13D000240294AA46AE
:1002D0001478FF2C0FD00A25A3FB057801FB0581BC
:1002E0004FF0000C03FB0C11521CE3194AEB010107
:1002F000EEE70124EAE7814453EA010002D019F550
:10030000C87F06DA03980021C0E9001107B0BDE8F4
:10031000F08F0025AE4E2F46DFF8B882184600F069
:1003200073FECDE90001B9F1000002DAC9F1000461
:1003300000E004460023A74A1AEB030B42EB045AE1
:1003400012E0E00707D02A4633463846414600F01F
:10035000B4FA074688462A4633461046194600F046
:10036000ACFA05460E466410002CEAD1DDE9000126
:10037000B9F1000F5A46534606DA00F010FB3A4630
:10038000434600F00CFB05E000F097FA3A4643467E
:1003900000F093FA029A0AB181F00041039AC2E98F
:1003A0000001B3E72DE9FF4F1F468DB0D7E90146A5
:1003B0004FF0FF382E2045464FF000090B90B969E9
:1003C0006D1C0E988847396A824688470028F6D106
:1003D000BAF1FF3F0AD024F4D064002E11DDBAF147
:1003E0002B0F08D0BAF12D0F0BD102E0404611B00F
:1003F0008DE744F48064B9696D1C0E988847824685
:10040000761E6946600501D52D2000E02B208DF871
:10041000000001F1010B0DF1200809E0B9696D1C24
:100420000E98884782460F9844F40074761E056043
:10043000002E02DDBAF1300FF0D00B998A453ED183
:1004400044F0800406E00F99681CA9F1010944F406
:1004500000740860B9696D1C761E0E988847824644
:100460003028F0D02BE00B998A4505D1200603D423
:1004700044F08004761E18E0504605F055F808B3A5
:100480000DF11301761E44F400748B4508D2AAF1D5
:1004900030000BF8010B200607D5A9F1010003E09D
:1004A000200602D409F101008146A00502D50F996A
:1004B000681C0860B9696D1C0E9888478246002E3A
:1004C000D1DC53E0002E51DDBAF1650F02D0BAF154
:1004D000450F4BD1A00549D5B9696D1C24F4407472
:1004E000761E0E9888478246002E0CDD2B2804D0FD
:1004F000BAF12D0F07D144F48074B9696D1C0E98C0
:1005000088478246761EE00501D52D2100E02B218B
:1005100008F8011BCDF82C8021E00DF12901761E91
:1005200044F4007488450CD2AAF1300010F0FF00AA
:1005300088F8000002D10B99884509D908F1010813
:1005400006E0E00501D5244801E042F20F70814643
:10055000B9696D1C0E98884782460F980560002E79
:1005600004DD504604F0E0FF0028D6D1F9690E986A
:100570008847FF208BF8000088F8000000200690D4
:1005800007904B466A4608A906A8FFF777FEA00524
:1005900002D46FF001002AE714F0240F0AD0E0071C
:1005A00014D1DDE906123868031D3B600068C0E91C
:1005B00000120BE0DDE9060100F028FB0146E00730
:1005C00004D13868021D3A600068016028460EE7D1
:1005D000000014400000F03FF1D8FFFFF0B480EAC3
:1005E0000102D40F4200B2EB410F02D2024608468C
:1005F00011464A0042D0C30DDDB2C1F3C752AD1A55
:10060000202D35DAC1F3160141F4000204B1524243
:10061000C5F1200602FA06F12A411044B3EBD05F7F
:1006200023D0C4B1012DA0EBC35009DCF0BC4FF0C6
:10063000004202EAC352DBB200F5000000F0F1BB59
:10064000400000F1807000EBC350A0F1807040EAE0
:10065000D170490009E0490841EAC071A0EBC350DC
:1006600000F50000400800EBC350F0BC00F0D0BB28
:100670006142012202EB4101001BF6E7F0BC70472A
:1006800081F00041AAE780F00040A7E780EA01027C
:1006900010B502F00043400022D04A001FD0010EE6
:1006A00001EB1261C0F35600C2F3560240F40000A1
:1006B00042F40002A0FB022000047F39140400D0A1
:1006C000401C50EA124001D44000491EC2B20C0640
:1006D00004EBD010401C4008802A02D003E0002028
:1006E00010BD20F00100002900DA0020184310BDE1
:1006F00030B480EA010202F0004530F0004221F0FF
:10070000004013D090B1C30DD40DC2F31601C0F355
:100710001600E41A41F4000140F400027D349142D5
:1007200001D3641C00E04900002C02DA30BC002038
:1007300070474FF400000023914201D3891A03430C
:1007400040084FEA4101F7D151B1914202D14FF037
:10075000004105E002D24FF0010101E06FF001011C
:1007600003EBC450284430BC00F052BB2DE9FE4FCF
:10077000804681EA0300C00F0C46009021F0004142
:1007800023F00045B8EB0200A94105D240462146BE
:1007900090461C460B46024623F00040104347D0CB
:1007A000270DC7F30A00C3F30A510290401A0190C3
:1007B00040286BDAC3F3130040F4801B0098924684
:1007C00020B10023D2EB030A63EB0B0B01985946CF
:1007D000C0F14002504600F07CFA06460D465046F5
:1007E0005946019A00F094FA10EB08006141002488
:1007F00087EA115284EAE7731A4340D0009A62B341
:10080000019A012A4FEA075215DC001B61EB020135
:100810004FF0004202EA0752CDE90042001C41F5C8
:10082000801132462B4600F039FB03B0BDE8F08F53
:1008300040462146F9E7001B61EB0201001C41F52F
:10084000801300185B412018A2F5001747EB030145
:1008500040EAD570B6196D4111E06D084FEA3606D1
:1008600045EAC0754FEA0752001B61EB0201001C0C
:1008700041F5801149084FEA3000001951413246D4
:100880002B4603B0BDE8F04F00F0F9BA0098012202
:1008900040000023D0EB020263EBE0730098214696
:1008A0004FEAE074B8EB000061EB0401E9E783F084
:1008B00000435BE781F0004158E72DE9FE4F81EAF4
:1008C000030404F0004421F0004100944FF0000BB9
:1008D00023F0004350EA01045ED052EA03045BD0E7
:1008E000C3F30A54C1F30A552C44A4F2F33401941F
:1008F000A0FB0254C1F3130141F48011C3F31303AD
:1009000043F4801301FB024400FB034E840A970A60
:1009100044EA815447EA8357A4FB076802958D0A8D
:1009200005FB07854FEA932C04FB0C542705029D19
:100930004FEA065847EA1637B5EB08056EEB070C89
:10094000870E920E47EA811742EA8312A7FB020143
:10095000B6EB0B0164EB00042B0D43EA0C335E187D
:1009600044EB1C50DA465146E7FB0201C5F3130481
:100970004FEA0B3343EA14534FEA0432019C43EA33
:100980000603A4F10C040294009CCDE900B400F02D
:1009900085FA03B0BDE8F08F00200146F9E72DE9A4
:1009A000F04D81EA030404F0004B21F000451446A9
:1009B0004FF0000A23F0004150EA050220D054EA2B
:1009C00001021DD0C5F30A570246C5F31303C1F354
:1009D0001300C1F30A5640F4801543F48013A7EBCB
:1009E0000608101BD64608F2FD3873EB050002D34B
:1009F00008F1010801E092185B41B8F1000F03DA39
:100A000000200146BDE8F08D00204FF4801106461D
:100A100084460EE0171B73EB050705D3121B63EB2F
:100A2000050306434CEA010C49084FEA30009218CE
:100A30005B4150EA0107EDD152EA030012D082EA8D
:100A4000040083EA0501084305D0101BAB4106D220
:100A50000122002306E000224FF0004302E06FF085
:100A6000010253101AEB06004CEB085110EB0A0080
:100A700041EB0B01BDE8F04D00F001BAC10F80EA77
:100A8000E0700844CA079623002100F0CAB99623F3
:100A90000022114600F0C5B90EB5C10F80EAE07022
:100AA0000844CA07002140F233438DE80E000A468D
:100AB0000B4600F0F3F903B000BD00F0004220F057
:100AC0000040C10DC0F3160040F400007F2901DA98
:100AD00000207047962903DCC1F19601C84001E06F
:100AE00096398840002AF4D04042704720F00040F8
:100AF000C10DC0F3160040F400007F2901DA002088
:100B00007047962903DCC1F19601C84070479639B9
:100B10008840704770B5C1F30A5201F000450024C7
:100B2000C1F3130140F2FF3341F480119A4201DA1C
:100B3000002070BD40F233439A42A2F2334203DCFC
:100B4000524200F0D5F800E090402C43F1D04042F2
:100B500070BDC1F30A5210B5C1F3130140F2FF3367
:100B600041F480119A4201DA002010BD40F2334373
:100B70009A42A2F2334203DC524200F0B9F810BDAF
:100B8000904010BD00F0004230F000400AD0C10D8E
:100B900001F56071C0F3160042EA0151C208400736
:100BA00011437047002001467047000030B5041E15
:100BB00071F1000404DB4FF00044404264EB01019A
:100BC000141E73F1000405DB1C464FF00043524233
:100BD00063EB04038B4208BF824230BD30B5041E74
:100BE00071F1000404DB4FF00044404264EB01016A
:100BF000141E73F1000405DB1C464FF00043524203
:100C000063EB0403994208BF904230BD01F00043FA
:100C100030B421F0004150EA010206D00A0DA2F5DD
:100C20006072C1F31301002A02DC30BC002070475F
:100C3000440F44EAC104C100E01830BC00EBC250CC
:100C400000F0E6B830B50B46014600202022012412
:100C500009E021FA02F59D4205D303FA02F5491B8A
:100C600004FA02F52844151EA2F10102F1DC30BDA0
:100C70002DE9F05F0546002092469B4688460646D1
:100C8000814640241BE0284641464746224600F064
:100C90002FF853465A46C01A914110D311461846B0
:100CA000224600F016F82D1A67EB01084F4622463F
:100CB0000120002100F00DF817EB00094E41201E25
:100CC000A4F10104DFDC484631462A464346BDE82C
:100CD000F09F202A04DB203A00FA02F1002070473E
:100CE0009140C2F1200320FA03F31943904070476A
:100CF000202A04DB203A21FA02F00021704721FA71
:100D000002F3D040C2F120029140084319467047D7
:100D1000202A06DBCB17203A41FA02F043EAE073BF
:100D200006E041FA02F3D040C2F1200291400843AC
:100D300019467047426842B1016811F8013B23B17E
:100D4000521EC0E90012184670470121C160881E7A
:100D5000704742685AB1C368016843B983688B42DF
:100D600005D0491E521CC0E90012002070474FF008
:100D7000FF3070470FB4002300B589B00CA9009173
:100D80000B996FF00042CB601E4B06931E4B0793EE
:100D90000423CDE901321D4A089202466B46002029
:100DA000FFF700FB09B05DF814FB70B586B006468E
:100DB0004FF0FF300091CDE90101002015460C46AF
:100DC00004903246694604A8FFF7D4FF024604980F
:100DD000211825B108B1084600E020462860049893
:100DE00000280DD0002A02DD0098884208D0081B98
:100DF0000094CDE901043246694604A8FFF7BAFF22
:100E000006B070BD350D0008530D000875100008C0
:100E10000029A8BF7047401C490008BF20F001000E
:100E2000704710B4B0FA80FC00FA0CF050EA0104EC
:100E300004BF10BC704749B1CCF1200421FA04F47E
:100E400011FA0CF118BF012121430843A3EB0C0157
:100E5000CB1D4FEA00614FEA102042BF002010BCBA
:100E6000704700EBC35010440029A4BF10BC70476A
:100E7000401C490008BF20F0010010BC704710B5AD
:100E8000141E73F1000408DA401C41F100019218AD
:100E90005B411A4301D120F0010010BD2DE9F04D56
:100EA00092469B4611B1B1FA81F202E0B0FA80F2AB
:100EB00020329046FFF70DFF04460F4640EA0A0035
:100EC00041EA0B0153465A46084313D0114653EAF0
:100ED000010019D0C8F140025046FFF709FF05464E
:100EE0000E46504659464246FFF7F3FE084305D0EA
:100EF000012004E020463946BDE8F08D002005437E
:100F000046EAE0762C4337430A986305E40AA0EBEF
:100F100008000022FD0A44EA47540A3002D50020A6
:100F20000146E9E7010510196941DDE908450019A5
:100F30006941BDE8F04DA2E770B521F000430343DD
:100F40000CD0C1F30A550024D5EB040564EB04036F
:100F5000D617AD1AB34102DB0020014670BD201840
:100F600041EB025170BD2DE9F04D00231A461B1ACA
:100F70008A4103DB00200146BDE8F08DC1F30A522F
:100F8000C1F3130141F480154FF0000BD10702D1DA
:100F900000186D41521E0027044640F2FF113846EA
:100FA00001EB620A3E468046024600204FF4801163
:100FB000FFF79EFEC2197141BB1846EB0100B4EB6E
:100FC000030C75EB000C04D3E41A65EB000517461F
:100FD0000E46241908F101006D4180463428E3DDF6
:100FE000F91946EB0600091BA84103D24FF0FF3266
:100FF000134601E0002213461BEB070046EB0A51A3
:10100000BDE8F04DFFF73BBF0EB540F23342029210
:101010000022CDE900221346FFF740FF03B000BDD8
:10102000C1F30A52C1F3130140F2FF3341F48011BE
:101030009A4202DA00200146704740F233439A4256
:10104000A2F2334202DC5242FFF752BEFFF741BE2A
:10105000064C074D06E0E06840F0010394E8070005
:1010600098471034AC42F6D3FFF766F8907F00083B
:10107000B07F0008C0B24FF4F05100F001B800009A
:101080007F2801D9002208E0064A02EB5002C0077F
:10109000127800D1120902F00F020120904008409E
:1010A00070470000987E000870B58C1810F8015B3E
:1010B00015F0070301D110F8013B2A1106D110F8F1
:1010C000012B03E010F8016B01F8016B5B1EF9D1F5
:1010D0002B0705D40023521E0DD401F8013BFAE77B
:1010E00010F8013BCB1A921C03E013F8015B01F8E6
:1010F000015B521EF9D5A142D8D3002070BD2DE965
:10110000FE4F04460D4616460027B846B946002154
:101110002D2000F035FA642005F002F82B21312053
:1011200000F02EFA0A212C2000F02AFA28212D2086
:1011300000F026FA00212E2000F022FA00211E20C5
:1011400000F01EFA00211F2000F01AFA00212020D2
:1011500000F016FA0C2004F0E3FFBA4616E06A46E7
:1011600001A902A800F02EF9BDF80800384407B222
:10117000BDF8040040440FFA80F8BDF80000484470
:101180000FFA80F90AF1010000F0FF0ABAF10A0F24
:10119000E5DB0A2097FBF0F007B20A2098FBF0F09D
:1011A0000FFA80F80A2099FBF0F00FFA80F97842E4
:1011B000C11700EB9171C1F387012170C8F10000E4
:1011C000C11700EB9171C1F387012970C9F58070D7
:1011D000C11700EB9171C1F38701317021781E2096
:1011E00000F0CEF929781F2000F0CAF931782020CC
:1011F00000F0C6F9BDE8FE8F2DE9F04F89B0064634
:10120000894615469A4600200890BAF1000F06D08C
:10121000BAF1010F32D0BAF1020F2ED15EE02846AA
:10122000FFF7B0FCCDE9060149464846FFF72EFA24
:10123000314601903046FFF729FA00900199FFF7F7
:10124000CDF98346FFF79EFCCDE9020106F070FB65
:10125000CDE90401DDE90623FFF7A1FB0746FFF70F
:10126000D5FC04462046FFF78DFCCDE9060104F0CD
:10127000FFFC0746FFF7CAFC08905FE029462846B6
:10128000FFF704FA494601904846FFF7FFF900903E
:101290000199FFF7A3F98346FFF774FCCDE902013A
:1012A00006F046FB074688463046FFF76BFC3A4699
:1012B0004346CDE90401FFF772FBCDE90601FFF7D4
:1012C000A5FC04462046FFF75DFCCDE9060104F0CD
:1012D000CFFC0746FFF79AFC08902FE029462846E6
:1012E000FFF7D4F9314601903046FFF7CFF900906F
:1012F0000199FFF773F98346FFF744FCCDE902013A
:1013000006F016FB074688464846FFF73BFC3A4680
:101310004346CDE90401FFF742FBCDE90601FFF7A3
:1013200075FC04462046FFF72DFCCDE9060104F0CC
:101330009FFC0746FFF76AFC089000BF00BF0A4900
:101340000898FFF7A3F98346FFF71CFC0746074AF6
:10135000074BFFF724FBCDE90601FFF7DBFB00B2EB
:1013600009B0BDE8F08F00000000E1441F85EB519B
:10137000B81E094010B500F0FDFF002000F057F83E
:10138000E5281DD12B21312000F0FAF80A212C206C
:1013900000F0F6F828212D2000F0F2F800212E2090
:1013A00000F0EEF800211E2000F0EAF800211F20D6
:1013B00000F0E6F80021202000F0E2F8002010BD47
:1013C0000120FCE72DE9F04704460D4616460027AC
:1013D000B846B946BA4616E032462946204600F0DD
:1013E00047F80A2004F09CFE2088384407B2288879
:1013F00040440FFA80F8308848440FFA80F90AF127
:10140000010000F0FF0ABAF10A0FE5DB0A2097FBA2
:10141000F0F000B220800A2098FBF0F000B22880A3
:101420000A2099FBF0F000B23080BDE8F08770B57B
:101430000446002501F02EF8A62001F003F801F083
:101440005FF80546204600F0FDFF01F059F805461B
:1014500001F020F8A72000F0F5FF01F051F8054653
:10146000002000F0C3FF054601F030F8284670BDAB
:101470002DE9FC4105460E46174601F00BF8A62063
:1014800000F0E0FF01F03CF8322000F0DBFF01F05B
:1014900037F800F0FFFFA72000F0D4FF01F030F88C
:1014A00000240EE0052C05D1002000F09FFF0DF870
:1014B000040004E0012000F099FF0DF80400601C16
:1014C000C4B2062CEEDB01F001F89DF800009DF897
:1014D000011000EB012000B228809DF802009DF869
:1014E000031000EB012000B230809DF804009DF84D
:1014F000051000EB012000B23880BDE8FC812DE929
:10150000FE4304460D4616461F46002020802880D4
:1015100030809FB380461DE06A4601A902A8FFF70C
:10152000A7FF2088BDF80810084400B22080288852
:10153000BDF80410084400B228803088BDF80010BF
:10154000084400B23080052004F0EAFD08F10100F3
:1015500000F0FF08B845DFDBB4F9000090FBF7F0BE
:1015600000B22080B5F9000090FBF7F000B22880AF
:10157000B6F9000090FBF7F000B23080BDE8FE83C2
:1015800070B505460C4600F085FFA62000F05AFF16
:1015900000F0B6FF284600F055FF00F0B1FF2046EE
:1015A00000F050FF00F0ACFF00F090FF70BD7047FE
:1015B00000BFFEE710B5C8210348FEF7F4FD002088
:1015C0000249088010BD0000B942002086000020BA
:1015D00010B5012000F0BAFF04463CB1374800784E
:1015E00020B93748047001203449087064B1334889
:1015F0000078012808DB314800781E2804DC2F48D9
:101600000078401C2D490870002C29D12B48007807
:10161000002825DD294800781E2821DA284800788E
:10162000012804D002280DD0032813D10EE025A0F4
:1016300003F0ACFD2648C078012802D100202449DF
:10164000C87008E023A003F0A1FD04E024A003F08B
:101650009DFD00E000BF00BF0020184908702CE08D
:101660005CBB164800781E2827DB15480078012847
:1016700004D0022814D003281AD115E01BA003F0CF
:1016800085FD13488078012803D100201049887017
:1016900002E001200E49887001201749087008E017
:1016A00016A003F073FD04E017A003F06FFD00E047
:1016B00000BF00BF00200149087010BDB60A00201D
:1016C000B70A00204B6579315F53686F72740A0066
:1016D000A20A00204B6579325F53686F72740A006A
:1016E0004B6579335F53686F72740A004B657931CB
:1016F0005F4C6F6E670A0000B05D00204B65793269
:101700005F4C6F6E670A00004B6579335F4C6F6EFC
:10171000670A00007047000010B54FF4807103485D
:10172000FEF741FD00200249088010BDAD540020A5
:101730007E0A002070B50546002400BF00F058F96D
:1017400080B90DA10E48FEF745FD044654B13A217B
:101750002046FEF751FD044614B1641C204670BDBE
:101760000020FCE7052004F0DBFC281EA5F10101A8
:101770008DB2E3D100BFF2E74950442C00000000D5
:10178000AD54002000B5A1B0FA2004F0C9FCFFF769
:10179000C3FF32A003F0FAFC03E04FF4967004F0AC
:1017A000BFFCC8222FA130A000F0D8F80028F4D147
:1017B0002FA003F0EBFC03E04FF4967004F0B0FCB4
:1017C000C82228A12DA000F0C9F80028F4D12FA02C
:1017D00003F0DCFC03E04FF4967004F0A1FCC82297
:1017E00020A12DA000F0BAF80028F4D12EA003F01B
:1017F000CDFC802101A8FEF7D6FC2DA32FA232A19B
:1018000001A803F0D3FC03E04FF4967004F088FCC9
:10181000C82233A101A800F0A1F80028F4D132A019
:1018200003F0B4FC802101A8FEF7BDFC40F25B731D
:1018300030A23CA101A803F0B9FC03E04FF4FA7018
:1018400004F06EFCC8223EA101A800F087F8002831
:10185000F4D13DA003F09AFC21B000BD41540D0A23
:10186000000000004F4B000041540D0A0D00000025
:1018700043574D4F44450D0A0000000041542B438F
:10188000574D4F44453D310D0A00000041542B4354
:1018900057444843500D0A0041542B435744484392
:1018A000503D312C310D0A0043574A41500D0A007A
:1018B000703637356570683900000000434D43438A
:1018C0002D4B50554400000041542B43574A415082
:1018D0003D222573222C222573220D0A00000000D0
:1018E000474F5420495000004349505354415254EB
:1018F0000D0A0000696F742D30367A303062686CE2
:101900006A313674766A382E6D7174742E696F740C
:101910006875622E616C6979756E63732E636F6D85
:101920000000000041542B43495053544152543D50
:1019300022544350222C222573222C25640D0A00A8
:10194000434F4E4E454354004553503832363620AF
:10195000496E6974204F4B0D0A0000002DE9F041DB
:1019600005460E4614462846FEF750FC87B2394617
:10197000284603F0DDFB0FE000F03AF848B93146A5
:101980000948FEF727FC20B1FFF7C6FE0020BDE89E
:10199000F0810A2004F0C4FB201EA4F101018CB2E6
:1019A000EAD10120F3E70000AD54002030B589B042
:1019B00005460C46FFF7B0FE224608A101A803F039
:1019C000F5FBC82209A101A8FFF7C8FF18B92146F5
:1019D000284603F0ADFB09B030BD000041542B4355
:1019E000495053454E443D25640D0A003E00000019
:1019F0000A48008808B9012070470848008808494B
:101A00000988884203D1002004490880F4E703488C
:101A10000088034908800120EEE700007E0A0020CC
:101A2000800A0020044900E0521C11F8013B002B01
:101A3000FAD1500870470000BC09002010B50446D8
:101A4000062C22D2DFE804F003080D12171C012136
:101A5000084602F04FFB18E00121022002F04AFB89
:101A600013E00121042002F045FB0EE001210820D3
:101A700002F040FB09E00121102002F03BFB04E0F2
:101A80000121202002F036FB00BF00BF10BD70B561
:101A900004460D4616462046FFF7D0FF324629463B
:101AA000204600F05AF8204600F001F870BD3EB51F
:101AB0000446204602F074FF0546062C33D2DFE8C8
:101AC00004F0030B131B232A4FF47A70ADF80400C3
:101AD0004820ADF8000026E040F2E730ADF8040001
:101AE0004720ADF800001EE04FF47A70ADF8040016
:101AF0004820ADF8000016E040F2E630ADF80400F2
:101B00004620ADF800000EE05920ADF804004F204B
:101B1000ADF8000007E040F2E730ADF804004720E0
:101B2000ADF8000000BF00BF0020ADF80600ADF822
:101B300002008DF808006946284602F0DFFE012108
:101B4000284602F0A9FE01221146284602F0CAFEEC
:101B50000021284602F0A6FE3EBDF8B506460C461A
:101B600015464FF4A06001F083FC26B1012E06D08B
:101B7000022E0CD107E01C208DF8000007E01D208C
:101B80008DF8000003E01E208DF8000000BF00BFAC
:101B90008DF801408DF8025001208DF80300684651
:101BA00001F02EFCF8BD2DE9F0410246002500268B
:101BB000002000230024002791F803C00CF00F053B
:101BC00091F803C00CF0100CBCF1000F03D091F899
:101BD00002C04CEA050591F800C0BCF1000F31D0FD
:101BE000146800202BE04FF0010C0CFA00F3B1F860
:101BF00000C00CEA03069E4220D183004FF00F0C78
:101C00000CFA03F7BC4305FA03FC4CEA040491F810
:101C100003C0BCF1280F06D14FF0010C0CFA00FCF8
:101C2000C2F814C00AE091F803C0BCF1480F05D116
:101C30004FF0010C0CFA00FCC2F810C0401C082840
:101C4000D1D31460B1F800C0BCF1FF0F34DD54688B
:101C500000202EE000F1080C4FF0010808FA0CF308
:101C6000B1F800C00CEA03069E4221D183004FF078
:101C70000F0C0CFA03F7BC4305FA03FC4CEA04040E
:101C800091F803C0BCF1280F05D100F1080C08FA47
:101C90000CF8C2F8148091F803C0BCF1480F07D1CA
:101CA00000F1080C4FF0010808FA0CF8C2F8108097
:101CB000401C0828CED35460BDE8F081F0B50A4638
:101CC000002300240021002500F00046B6F1004F5B
:101CD00002D11D4EF16901E01B4E7168C0F303454E
:101CE00083B200F44016B6F5401F08D121F07061B0
:101CF000154E766826F07066134F7E6012E000F491
:101D00008016B6F5801F06D1032606FA05F4A14316
:101D100041F0706106E0460D360103FA06F6B14364
:101D200041F0706122B1460D360103FA06F63143E7
:101D300000F00046B6F1004F02D1034EF16101E020
:101D4000014E7160F0BD000000000140024600201D
:101D500093680B400BB1012000E000207047416107
:101D600070470161704700002DE9F04701202249CA
:101D70000860142004F0FAF900202049C1F8B401E9
:101D800000BF1D48843800680028FAD000211C4894
:101D900002F0B1FD00201B49088000BF16488438BE
:101DA00000680028FAD10021154802F07BFD144894
:101DB00002F084FD134909884FF4E15202FB010A45
:101DC0005046FEF769FE064600220F4BFEF7E7FD80
:101DD000044600224FF08043FEF7E1FD8046FEF707
:101DE00099FE0A4908600121054802F05BFD074899
:101DF000008880B2BDE8F087B48121420080214292
:101E00000004004054000020000052405800002010
:101E100008B50121082002F08DF94FF48050ADF88B
:101E2000000004208DF8030003208DF802006946AD
:101E30000848FFF7B8FE4FF40050ADF8000010203E
:101E40008DF8030003208DF8020069460148FFF772
:101E5000AAFE08BD000C014000BFFEE700B591B02E
:101E60004FF4A06001F004FBFFF7DCFD5F49086060
:101E700004F034F9012200210220FFF708FE4FF49C
:101E8000E13003F057F84FF4165003F0A3F84FF485
:101E9000E13003F0F7F802F08DFB00F08FFB00F06B
:101EA0007BFB01F0B7FB002001F06FFB002001F08D
:101EB0007AFB02E0052004F033F94D494D4802F069
:101EC00047FA0128F6D1FFF755FA4B4A4B494C48DF
:101ED000FFF715F9FFF79CFF002141F61F4002F0C4
:101EE00071FC48A104A803F061F904AA02210020B2
:101EF00001F046FC04F0E8FB464847490860002032
:101F0000464908604FF4FA70454908600020454989
:101F100008604DE000BF444800680128FBD04349F9
:101F2000072004F090FB414800788007800B3F4970
:101F3000497840EA01203D49897808433C49394ABB
:101F4000126841F822003948C0788007800B374971
:101F5000097940EA01203549497908433549314A30
:101F6000126841F8220032482E49096850F82100D1
:101F700029490968884206D22D482A49096850F83B
:101F80002100254908602A482649096850F821009F
:101F900022490968884206D925482249096850F82B
:101FA00021001E4908601F480068401C1D49086048
:101FB0001C4800681A4909688842ABDB1C4819496B
:101FC000096850F821001C4908601C481C491D4A3A
:101FD0001D4BCDE900210290154A114801681548B2
:101FE00004F0E0FB01F0CCFA11B000BD540A00206F
:101FF000A20A00209C0A0020600000205E00002051
:102000005C0000202D2D2D204D41583330313032D1
:10201000202D2D00FFFF03001400002018000020D9
:1020200000000020200000201C8121422D00002003
:10203000AC1A0020DC1200201C0000201000002040
:102040000C000020080000200400002008B5012139
:10205000082002F06FF84FF48070ADF80000042003
:102060008DF8030069460248FFF79DFD08BD00009A
:10207000000C014008B50121082002F05BF84FF484
:102080008070ADF8000003208DF8020010208DF85C
:10209000030069460148FFF786FD08BD000C0140BA
:1020A0003EB500209249086092489349086000209C
:1020B0009249086064208E4908603AE090488C4953
:1020C000096850F821108A48006864388C4A42F840
:1020D00020108C488649096850F82110844800680F
:1020E0006438884A42F8201085488149096850F8C8
:1020F000210081490968884206D281487C490968E3
:1021000050F821007C4908607D487949096850F8F9
:1021100021007A490968884206D9794874490968D2
:1021200050F821007549086071480068401C7049EA
:1021300008606F480068B0F5FA7FBFDB4FF4C870E5
:102140006B490860BFE06A480068401E6C4951F85E
:1021500020006D49086000BF6C4800680128FBD072
:102160006B49072004F06FFA694800788007800BFC
:102170006749497840EA0120654989780843604900
:102180005B4A126841F822006148C0788007800BE2
:102190005F49097940EA01205D4949790843594975
:1021A000534A126841F8220055485149096850F8CD
:1021B000210055490968884231D951494C4A126871
:1021C00051F82210504A1268881AFEF760FC5149F3
:1021D00008604A490968484A1268881AFEF757FC9D
:1021E000044621464B480068FEF782FA49490860D8
:1021F000494948480068FEF749FA464908600846D8
:102200000068FEF75AFC45490968081A4349086006
:1022100008460068002833DA0020086030E03849BA
:10222000334A126851F82210374A1268501AFEF7E2
:102230002EFC38490860314909682F4A1268881A0B
:10224000FEF725FC0446214632480068FEF750FAA6
:102250003049086030492F480068FEF717FA2D49C9
:10226000086008460068FEF728FC2C490968084405
:102270002A49086008460068FF2801DDFF20086041
:1022800027480078012814D126480078012810D169
:102290002548006878280CDA24480068652808DAA0
:1022A00021480078224908702048007821490870A8
:1022B00004E000201E4908701E4908700C480068A0
:1022C000401C0B4908600A480068B0F5FA7FFFF629
:1022D0003AAF13481449134A144BCDE90021029038
:1022E000074A15480168074804F05CFA3EBD000043
:1022F00020000020FFFF0300140000201800002031
:10230000AC1A0020DC1200201C0000201C8121429D
:102310002D0000202800002000007F432400002022
:1023200010000020080000200C0000200400002005
:1023300033000020340000200000002010B50020F1
:102340000A49086002F020F800200949C1F8940108
:10235000022003F00BFF012004490860022003F073
:1023600005FF00200249C1F8980110BD9881214263
:102370000080214208B50121082001F0DBFE602029
:10238000ADF8000010208DF8030003208DF8020046
:1023900069460548FFF707FC012004490860044925
:1023A000C1F8940108BD0000000C01409881214251
:1023B0000080214210B500200A49086001F0E4FFC6
:1023C00001200949C1F89401022003F0CFFE012049
:1023D00004490860022003F0C9FE00200249C1F848
:1023E000980110BD988121420080214270B50546B8
:1023F000002401F0B7FF002616E000200F49086016
:10240000022003F0B3FE01200D49C1F898016006D7
:10241000040E0A488438006808B1601CC4B2012068
:1024200003F0A4FE701CC6B2082EE6DB15B9FFF758
:10243000C1FF01E0FFF782FF204670BD9881214275
:102440000080214270B5044601F09EFF00200F4934
:102450000860002517E0E0090C49091F08606006C4
:10246000040E022003F082FE01200949C1F8980100
:10247000022003F07BFE002004490860022003F0E4
:1024800075FE681CC5B2082DE5DB70BD9881214240
:102490000080214210B501F077FF01200949086052
:1024A0000949C1F89801042003F060FE00200549A5
:1024B0000860042003F05AFE00200349C1F8980187
:1024C00010BD0000948121420080214210B501F02E
:1024D0005BFF0020084908600849C1F89401042006
:1024E00003F044FE0120044908600449C1F8940146
:1024F000042003F03BFE10BD988121420080214260
:1025000010B5002401F02EFF01200E49086003F0F1
:102510002DFE01200C49C1F8980103F027FE07E0C9
:10252000601CC4B2FA2C03DDFFF7D0FF012010BD00
:102530000448803800680028F2D10249091D08606B
:1025400000BFF4E7948121420080214210B5044687
:1025500014B101200E4908700D48007870B10121B6
:102560000C48FFF7F3FB48B9002009490870012126
:102570000848FFF7EBFB48B9012010BD01210548D1
:10258000FFF7E4FB012801D1014908700020F4E7BE
:10259000500000200008014008B50121042001F08E
:1025A000C9FD0120ADF8000048208DF80300694600
:1025B0000148FFF7F8FA08BD0008014008B50121FD
:1025C000142001F0B7FD4FF40050ADF800001020CA
:1025D0008DF8030003208DF8020069460648FFF7D6
:1025E000E2FA0220ADF8000069460448FFF7DBFA82
:1025F00000200349086008BD0010014000080140A8
:10260000B401224210B50446207B012802D1206883
:1026100002F0F4FD002020606060A060207310BD17
:102620000246002301230DE002F07F000870D2096A
:102630002AB1087840F080000870491C01E0184673
:1026400070475B1C042BEFDD4FF0FF30F8E7000014
:1026500070B5C0B004464FF480716846FDF7A3FD25
:1026600042A00088208042480068002815DD4048CC
:102670000068962811DA3F48007870B14FF48071F5
:102680006846FDF790FD3A483BA10268684602F0B3
:102690008DFD69462046FDF791FD4FF48071684637
:1026A000FDF781FD38480068FEF76CFA05462A46BA
:1026B0000B4636A1684602F079FD69462046FDF7D3
:1026C0007DFD4FF480716846FDF76DFD334800686D
:1026D000FEF758FA05462A460B4631A1684602F035
:1026E00065FD69462046FDF769FD4FF48071684637
:1026F000FDF759FD2E4882882EA1684602F056FD4E
:1027000069462046FDF75AFD4FF480716846FDF793
:102710004AFD2748C2782BA1684602F047FD69466A
:102720002046FDF74BFD4FF480716846FDF73BFDF9
:102730001F48827827A1684602F038FD6946204686
:10274000FDF73CFD4FF480716846FDF72CFD26A196
:10275000684602F02BFD69462046FDF72FFD204616
:10276000FDF754FDC0B240B070BD00007B0000001A
:102770000C00002008000020226865617274223A73
:10278000222564222C000000B00A0020226C617413
:10279000223A22252E3666222C000000AC0A0020A8
:1027A000226C6F67223A22252E3666222C0000000A
:1027B000A20A00202264697363223A222564222C33
:1027C0000000000022776172696E67223A22256458
:1027D000222C0000226B65795F776172696E672237
:1027E0003A222564220000007D00000070B50446F6
:1027F0000E460025206898B901202073304602F06B
:1028000081FD20602068E0B100206060A66003E0E8
:102810000020216848556D1CA068A842F8D810E037
:102820000220207303E00020216848556D1CA06839
:10283000A842F8D800206060A068B04201D2002011
:10284000206070BD2DE9FF5F07460D469046384673
:10285000FDF7DCFC86B22846FDF7D8FC1FFA80FAAB
:102860004FF00009B01D02F04DFD04461CB90120D7
:1028700004B0BDE8F09FB11D2046FDF794FC12A006
:10288000016821608088A080324639462046FDF7E5
:10289000D2FC2846FDF7BAFC8346012000210091B6
:1028A0005B462A46CDE90208019121460A2000F044
:1028B0005FF910B94FF0000901E04FF0010920461F
:1028C00002F09CFC4846D3E724637273702F00002B
:1028D0002DE9FF4F83B082468B469146159C00251B
:1028E000002002900F2701904846FDF78FFC0FFA59
:1028F00080F8B9F1000F03D1012007B0BDE8F08FD7
:1029000008F10200384487B2109808B145F002057A
:10291000129878B145F004051298FDF777FCC0B223
:1029200002901398FDF772FC01460298001D0844BE
:10293000384487B2119820B1012804D0022808D168
:1029400004E000BF07E045F00C0504E045F0140585
:1029500001E00220D1E700BF149808B145F024053A
:10296000BAF1000F02D0BBF1000F01D10320C4E780
:1029700045F0C0055046FDF749FC06465846FDF7B0
:1029800045FC3044001D384487B239462046FFF7E5
:102990002DFF206808B90420AFE739462068FDF70D
:1029A00002FC10216268501C606020688154D4E9E8
:1029B0000023D118781FFFF733FE00B20190019871
:1029C000002804DA2046FFF71DFE052095E7616820
:1029D00001980844606000216268501C60602068B3
:1029E000815404216268501C6060206881544D212C
:1029F0006268501C60602068815451216268501CDC
:102A000060602068815454216268501C60602068B6
:102A100081546268501C606020688154042162689F
:102A2000501C6060206881546168481C60602068A8
:102A300045540698010A6268501C60602068815401
:102A40000698C1B26268501C606020688154C8F367
:102A500007216268501C6060206881546268501CC5
:102A60006060206800F80280D4E9001288184246AD
:102A70004946FDF7E0FB60684044606005F00400F3
:102A8000B8B30026139808B938A013901298FDF730
:102A9000BDFB86B2310A6268501C606020688154B8
:102AA0006268501C606020688654D4E9001288185F
:102AB00032461299FDF7BFFB60683044606013989E
:102AC000FDF7A4FB86B2310A6268501C6060206882
:102AD00081546268501C606020688654D4E90012FA
:102AE000881832461399FDF7A6FB60683044606091
:102AF00000BF05F08000C8B15046FDF787FB86B2E5
:102B0000310A6268501C6060206881546268501C01
:102B1000606020688654D4E9001288183246514615
:102B2000FDF789FB60683044606000BF05F040003D
:102B3000C8B15846FDF76AFB86B2310A6268501C7C
:102B40006060206881546268501C60602068865410
:102B5000D4E90012881832465946FDF76CFB6068CC
:102B60003044606000BF0020C7E6000000000000A5
:102B70002DE9FF4F83B0834690469946139C00266B
:102B800000250020029001900027BBF1000F03D127
:102B9000012007B0BDE8F08F00250AE00498405DF1
:102BA000232803D00498405D2B2801D10220F0E7B0
:102BB0006D1C0498405D0028F0D147F03007119853
:102BC00008B147F0010705EB0900861C109820B1F9
:102BD000012804D002280AD105E000BF09E047F02F
:102BE0000207B61C05E047F00407B61C01E003200D
:102BF000CFE700BF98F80000022822D14FF0000A6A
:102C000000BF50460AF1010A18F800007D28F8D1EB
:102C1000AAF1030A0AF1070002900298A9EB000A40
:102C2000F01CA0EB0A012046FFF7E0FD206808B980
:102C30000420AEE7F21CA2EB0A012068FDF7B3FA0C
:102C40000BE0F11C2046FFF7D1FD206808B90420F5
:102C50009FE7F11C2068FDF7A6FA6168481C6060D8
:102C600020684754D4E9000281183046FFF7D8FCA9
:102C700001900198002804DA2046FFF7C3FC0520E4
:102C800087E76168019808446060C5F307216268BE
:102C9000501C6060206881546268501C606020682D
:102CA0008554D4E9001288182A460499FDF7C3FA1E
:102CB000606828446060109860B14FEA1B21626828
:102CC000501C6060206881546268501C60602068FD
:102CD00000F802B0B8F1000F19D098F800000228EF
:102CE0000BD1D4E9001288184146029AFDF742FA46
:102CF000616802980844606009E0D4E9001288180D
:102D00004A464146FDF736FA606848446060002054
:102D10003FE770B505460C4604212046FFF766FDE7
:102D2000206808B9012070BD40216268501C6060B5
:102D30002068815402216268501C606020688154C0
:102D400029126268501C6060206881546268501CBF
:102D50006060206885540020E5E770B505460C46A4
:102D600004212046FFF742FD206808B9012070BD0C
:102D700070216268501C6060206881540221626882
:102D8000501C60602068815429126268501C606089
:102D9000206881546268501C60602068855400205F
:102DA000E5E770B505460C4604212046FFF71EFDF9
:102DB000206808B9012070BD50216268501C606015
:102DC0002068815402216268501C60602068815430
:102DD00029126268501C6060206881546268501C2F
:102DE0006060206885540020E5E770B505460C4614
:102DF00004212046FFF7FAFC206808B9012070BDC5
:102E000062216268501C60602068815402216268FF
:102E1000501C60602068815429126268501C6060F8
:102E2000206881546268501C6060206885540020CE
:102E3000E5E72DE9FF5F8046174699460E9C002680
:102E4000B246B3460025B8F1000F03D1012004B00B
:102E5000BDE8F09F0BE057F8250008B90220F6E71F
:102E600057F82500FDF7D2F90644681CC5B24D4558
:102E7000F1DB09EB4900801C00EB060A0AF10501B1
:102E80002046FFF7B3FC206808B90320DFE7822162
:102E90006268501C606020688154D4E90002811887
:102EA0005046FFF7BDFB0FFA80FBBBF1000F04DAC1
:102EB0002046FFF7A7FB0420C9E76068584460601C
:102EC0004FEA18216268501C606020688154626873
:102ED000501C6060206800F80280002524E057F84C
:102EE0002500FDF793F90646C6F307216268501CDA
:102EF0006060206881546268501C6060206886545D
:102F0000D4E90023D01857F825103246FDF793F97D
:102F10006068304460600198C1B26268501C6060B3
:102F200020688154681CC5B24D45D8DB00208EE76F
:102F3000F0B504460D46264601230020106000210E
:102F400014E0775C07F07F07106807FB0300106050
:102F5000705C00F0800008B9481CF0BDDB01B3F5DF
:102F6000001F02D36FF00100F7E7491CA942E8DB1C
:102F70004FF0FF30F1E72DE9F84380460C46154647
:102F80001E462F2108F10600FDF736F907460020FE
:102F9000009017B90120BDE8F8837F1C6A46042120
:102FA00008F10100FFF7C4FF252002F0ABF9206013
:102FB000206808B90220EEE725212068FDF7F3F824
:102FC000242239462068FDF7D5F8243700982C389C
:102FD00030803188481C02F095F92860286820B9B3
:102FE000206802F00BF90320D5E73288511C2868CD
:102FF000FDF7D9F8328839462868FDF7BBF800207C
:10300000C9E701464878022801D001207047887836
:1030100010B18878012801D1C878F7E7FF20F5E7DB
:103020002DE9FC5F81460D4614461E46DDE90C8BFA
:1030300099F8000000F00F0A002001900AF0080043
:103040000090CAF341008BF8000001AA042109F1A5
:103050000100FFF76DFF4844471C0198022802D386
:103060000AF0010010B1FF20BDE8FC9F78783978A4
:1030700040EA012020802088801C0199884201D9E3
:10308000FF20F1E754A1B81CFDF7A4F808B10F2008
:10309000EAE79BF8000020B101283DD0022877D153
:1030A0003BE0009808B1FF20DEE72188481C02F0D1
:1030B00029F92860286808B9FF20D5E72288511C23
:1030C0002868FDF770F82288B91C2868FDF752F8C7
:1030D0000198801E2188401AA8F80000B8F8001056
:1030E000481C02F00FF93060306820B9286802F0FF
:1030F00085F8FF20B8E7B8F80020511C3068FDF7CC
:1031000052F8B8F80020B4F800C0BB1C0CEB030167
:103110003068FDF72FF84FE000BF2088801C019930
:10312000884201D9FF209FE72088C01C395C208895
:10313000801C385C41EA00210E9801800E9808B985
:10314000FF2091E72188481C02F0DCF828602868FD
:1031500008B9FF2088E72288511C2868FDF723F86A
:103160002288B91C2868FDF705F80198001F2188FE
:10317000401AA8F80000B8F80010481C02F0C2F885
:103180003060306828B9286802F038F8FF206BE713
:1031900010E0B8F80020511C3068FDF704F8B8F8CA
:1031A0000020B4F800C03B1D0CEB03013068FCF7B5
:1031B000E1FF01E0FF2057E700BF2B212846FDF784
:1031C0001BF820B923212846FDF716F808B1FF2087
:1031D0004AE7002048E700002463726571000000A0
:1031E00001464878022801D001207047887820B92C
:1031F000C8780A2801D10020F7E70120F5E7014649
:103200004878022801D001207047887820B9C87812
:103210000A2801D10020F7E70120F5E701464878A8
:10322000022801D001207047887820B9C8780A2880
:1032300001D10020F7E70120F5E702465078022887
:1032400001D0012070479078B0EB112F05D1D078D4
:10325000CBB2984201D10020F4E70120F2E7000050
:10326000F8B50446FF2720780511012D01DB0E2D4E
:1032700001DD3846F8BD032D24D1002000906A46B8
:103280000421601CFFF754FE2044461C00980228CD
:1032900003D3207800F0010008B1FF20EAE770783E
:1032A000317840EA0120801C0099884201D9FF2032
:1032B000E0E706A1B01CFCF78DFF08B10F2700E086
:1032C000032700E02F463846D4E7000024637265E8
:1032D000710000000146FF208A78A2B9CA78142A3A
:1032E00011D10A7932B1012A05D0022A04D0802AEC
:1032F00006D103E000BF00BF002003E0012001E091
:10330000022000BF00BF7047014601208A781AB929
:10331000CA781E2A00D10020704700BFFEE70000D7
:1033200010B5A0B0044680216846FCF73CFF11A010
:103330000088208080216846FCF735FF0E4802781F
:103340000EA1684601F032FF69462046FCF736FFC1
:1033500080216846FCF727FF0DA1684601F026FF93
:1033600069462046FCF72AFF2046FCF74FFFC0B213
:1033700020B010BD7B000000A20A00202263686517
:10338000636B5F646576696365223A222564220077
:103390007D00000010B5A0B0044680216846FCF70F
:1033A00002FF11A00088208080216846FCF7FBFE08
:1033B00001220EA1684601F0F9FE69462046FCF79D
:1033C000FDFE80216846FCF7EEFE0BA1684601F089
:1033D000EDFE69462046FCF7F1FE2046FCF716FF9D
:1033E000C0B220B010BD00007B0000002274696DE7
:1033F00065223A22256422007D000000704700000B
:1034000070B5002100230F22C47804B3154C246842
:1034100004F4E064C4F5E064210AC1F10403CA4085
:10342000447804FA03F184781440214309010E4CD6
:103430000678A155047804F01F050124AC400578F6
:103440006D11AD0005F1E025C5F8004109E00478F3
:1034500004F01F050124AC40044D0678761145F8B0
:10346000264070BD0CED00E000E400E080E100E0EB
:1034700002490143024A1160704700000000FA054A
:103480000CED00E000B58DB000F07AF821A168469F
:1034900001F08CFE6A460021084600F071F921A275
:1034A00023A1684601F082FE6A460221002000F056
:1034B00067F924A226A1684601F078FE6A46042135
:1034C000002000F05DF927A1684601F06FFE6A4612
:1034D0000621002000F054F9FEF754F903E04FF400
:1034E000967002F01DFE00F037FA0028F7D103E0D5
:1034F0004FF4967002F014FE01211F4800F082FD87
:103500000028F5D13C201D49087000F039F80DB0B5
:1035100000BD00002DC7EBB4F2BFAA57494649C809
:10352000C8B5E300434D43432D4B505544000000C4
:103530002DC3FBB3C63A2573202020202020202055
:1035400020000000703637356570683900000000D3
:103550002DC3DCC2EB3A2573202020202020202020
:10356000200000002DC6B5C2CA3A20322E342047B2
:10357000487A20202000000038000020980A00200F
:1035800010B5002000F025F810BD10B504461CB998
:103590000021A62000F0A6F9012C03D10021A720CC
:1035A00000F0A0F910BD10B504463CB90021C820B8
:1035B00000F098F90021A12000F094F9012C07D126
:1035C0000021C02000F08EF90021A02000F08AF92F
:1035D00010BD70B50646002419E004F1B001C8B270
:1035E000002100F07FF90021084600F07BF900215E
:1035F000102000F077F9002505E00121304600F0A9
:1036000071F9681CC5B2822DF7DB601CC4B2082CAE
:10361000E3DB70BD08B50121042000F08BFDB02074
:10362000ADF8000010208DF8030003208DF8020093
:1036300069465148FEF7B7FAB0214F48FEF791FBB3
:103640000121082000F076FD40F20310ADF80000E3
:1036500010208DF8030003208DF8020069464748CA
:10366000FEF7A1FA40F203114448FEF77AFB01216C
:103670004248FEF776FB642002F052FD01213F48EC
:10368000FEF76DFBC82002F04BFD01213B48FEF721
:1036900068FB0021AE2000F025F90021084600F06B
:1036A00021F90021102000F01DF90021402000F038
:1036B00019F90021812000F015F90021CF2000F038
:1036C00011F90021A12000F00DF90021C82000F01F
:1036D00009F90021A62000F005F90021A82000F03A
:1036E00001F900213F2000F0FDF80021D32000F077
:1036F000F9F80021084600F0F5F80021D52000F087
:10370000F1F80021802000F0EDF80021D92000F030
:10371000E9F80021F12000F0E5F80021DA2000F0BE
:10372000E1F80021122000F0DDF80021DB2000F09C
:10373000D9F80021402000F0D5F80021202000F029
:10374000D1F80021022000F0CDF800218D2000F0FA
:10375000C9F80021142000F0C5F80021A42000F0D1
:10376000C1F80021A62000F0BDF80021AF2000F034
:10377000B9F8FFF705FF08BD00080140000C014043
:103780002DE9F047074688461646002584E0307844
:10379000A02845DD00253CE0702F04DD002708F15E
:1037A000020000F0FF0830783E4911F815108842F9
:1037B0002ED17078012101EB45013A4A515C8842D3
:1037C00026D14146384600F077F8002407E004EBA4
:1037D0004511354A505C012100F084F8641C102C1E
:1037E000F5D308F10100C1B2384600F065F80024B5
:1037F00008E004EB451110312B4A505C012100F028
:1038000071F8641C102CF4D307F11000C7B204E067
:103810006D1C264800688542BED300BFB61C3BE045
:103820007A2F04DD002708F1020000F0FF0831784C
:103830001F48FCF7E1FC8146B9F1000F2BD041464F
:10384000384600F039F800240AE099F800102039D1
:1038500004EB0111174A505C012100F043F8641C8D
:10386000082CF2D308F10100C1B2384600F024F868
:1038700000240BE099F80010203904EB0111083105
:103880000C4A505C012100F02DF8641C082CF1D387
:1038900007F10800C7B2761C307800287FF477AFB4
:1038A000BDE8F087BC0900207C060020540A0020F7
:1038B000F10900208C00002070B504460D4605F18A
:1038C000B001C8B2002100F00DF8102141EA141037
:1038D000002100F007F804F00F00002100F002F8CA
:1038E00070BD000070B504460E4626B1022118488E
:1038F000FEF737FA03E002211548FEF730FA1021EF
:103900001448FEF72CFA002517E020211148FEF795
:1039100026FA04F0800020B180210E48FEF721FA3B
:1039200003E080210B48FEF71AFA20210948FEF730
:1039300018FA6006040E681CC5B2082DE5DB1021DC
:103940000448FEF70EFA02210148FEF70AFA70BD9C
:10395000000C01400008014030B58BB000200790FA
:10396000089009900A900125354B364A36A13CA0B3
:1039700001F00CFC07A8002102910391CDE904108D
:1039800000912B022E4A01912E492FA0FEF7A0FF95
:10399000002843D1089A91B20798FEF707F8FA2059
:1039A000FDF7C8FE0446002C2FD02046FFF758FC38
:1039B00002282AD12046FFF724FB062820D2DFE880
:1039C00000F0030B0F13171B2DA001F0DFFB0025E8
:1039D00000203049C87017E02FA001F0D7FB13E09A
:1039E00034A001F0D3FB0FE03BA001F0CFFB0BE0D4
:1039F00041A001F0CBFB07E048A001F0C7FB03E0CA
:103A000051A001F0C3FB00BF00BF2248C078401C9A
:103A10002049C87007A8FEF7F5FD07E01D48C078EB
:103A2000401C1C49C8704FA001F0B0FB1948C07879
:103A3000022801DD00F076FD28460BB030BD000005
:103A40003C7F0008F87E0008736D617274646576CF
:103A5000696365266B31317135447962797A450045
:103A600050524F49443A20257309415549463A205E
:103A700025730944455649443A25730D0A00000050
:103A8000546970733A09C1ACBDD3B3C9B9A60D0A64
:103A900000000000B05D00205741524E3A09C1AC11
:103AA000BDD3CAA7B0DCA3BAD0ADD2E9B4EDCEF392
:103AB0000D0A00005741524E3A09C1ACBDD3CAA706
:103AC000B0DCA3BAB7C7B7A8B5C4636C69656E7438
:103AD00069640D0A000000005741524E3A09C1AC1A
:103AE000BDD3CAA7B0DCA3BAB7FECEF1C6F7CAA74A
:103AF000B0DC0D0A000000005741524E3A09C1AC3B
:103B0000BDD3CAA7B0DCA3BAD3C3BBA7C3FBBBF268
:103B1000C3DCC2EBB4EDCEF30D0A00005741524EA8
:103B20003A09C1ACBDD3CAA7B0DCA3BAB7C7B7A81E
:103B3000C1B4BDD328B1C8C8E7746F6B656EB7C791
:103B4000B7A8290D0A0000004552523A09C1ACBD80
:103B5000D3CAA7B0DCA3BACEB4D6AAB4EDCEF30DC7
:103B60000A0000005741524E3A094D5154545F50DB
:103B700061636B6574436F6E6E6563742046616943
:103B80006C65640D0A00000070B58CB0064600201C
:103B9000089009900A900B90079006900590049069
:103BA0000024039000253046FFF75AFB0446E01E30
:103BB0000D2870D2DFE800F028707B93ADCDB5CD35
:103BC000C1CDCDCD070004AB07AA06A93046FFF74B
:103BD000D2F90546BDB9BDF810306BA0DDE906127B
:103BE00001F0D4FA08AADDE90601FEF72BFE50B970
:103BF0006EA001F0CBFA099A91B20898FDF7D6FEB3
:103C000008A8FEF7FFFCA7E06E4803A904AA07ABCB
:103C1000CDE90021029005AA06A93046FFF700FA77
:103C20000546002D36D1BDF810000090BDF81420D7
:103C300065A0DDE9061301F0A9FA9DF80C00012842
:103C400002D0022824D111E008A95E480088FFF7BD
:103C500060F850B96BA001F099FA099A91B20898EE
:103C6000FDF7A4FE08A8FEF7CDFC12E008A9554810
:103C70000088FFF796F850B968A001F087FA099A12
:103C800091B20898FDF792FE08A8FEF7BBFC00E091
:103C900000BF00BF60E05CE03046FFF7A1FA10B95A
:103CA00064A001F073FA3C206A49087054E0304681
:103CB000FFF7B4FA90B968A001F068FA08A90A20E1
:103CC000FFF793F850B96AA001F060FA099A91B22F
:103CD0000898FDF76BFE08A8FEF794FC3CE0394815
:103CE00001883046FFF7A9FA90B967A001F04EFAB3
:103CF00008A90A20FFF731F850B969A001F046FA87
:103D0000099A91B20898FDF751FE08A8FEF77AFCCF
:103D100022E03046FFF773FA10B968A001F036FAD6
:103D20001AE03046FFF7D6FA18B96AA001F02EFA69
:103D300002E06FA001F02AFA0EE03046FFF7E4FA45
:103D400018B972A001F022FA02E077A001F01EFA81
:103D500002E04FF0FF3500BF00BFFDF7DDFC681C3F
:103D600008B90CB070BD079810B1079802F0D2FBEB
:103D70000F2C01D0032C05D1069801F03FFA0798CB
:103D800001F03CFA00BFECE7636D6469643A2025FA
:103D9000732C207265713A2025732C207265715F37
:103DA0006C656E3A2025640D0A000000546970733A
:103DB0003A0953656E6420436D64526573700D0A51
:103DC000000000009A0A0020746F7069633A202591
:103DD000732C20746F7069635F6C656E3A20256484
:103DE0002C207061796C6F61643A2025732C2070EF
:103DF00061796C6F61645F6C656E3A2025640D0AB1
:103E000000000000546970733A0953656E642050D5
:103E100075626C69736841636B0D0A005469707355
:103E20003A0953656E64205075626C697368526517
:103E3000630D0A00546970733A094D51545420506F
:103E400075626C6973682053656E64204F4B0D0A70
:103E500000000000980A0020546970733A09526506
:103E600076205075626C6973685265630D0A0000B4
:103E7000546970733A0953656E64205075626C69B9
:103E8000736852656C0D0A00546970733A09526583
:103E900076205075626C69736852656C0D0A00007B
:103EA000546970733A0953656E64205075626C6989
:103EB0007368436F6D700D0A0000000054697073E1
:103EC0003A09526576205075626C697368436F6D6C
:103ED000700D0A00546970733A094D5154542053BF
:103EE0007562736372696265204F4B0D0A000000B2
:103EF000546970733A094D51545420537562736379
:103F000072696265204572720D0A0000546970730F
:103F10003A094D51545420556E537562736372695A
:103F20006265204F4B0D0A00546970733A094D5178
:103F3000545420556E5375627363726962652045EF
:103F400072720D0A0000000030B5C9B004460020AE
:103F5000459046904790489000254FF4807105A801
:103F6000FCF721F9012C06D0022C09D0032C0CD02F
:103F7000042C14D10EE005A8FEF76AFB05460FE0FD
:103F800005A8FFF707FA05460AE005A8FFF7C8F9F4
:103F9000054605E005A8FFF7C3F9054600E000BFA8
:103FA00000BFCDB145A801210022CDE900122B466A
:103FB00005AACDE9021009A10A20FEF7D9FD40B9F2
:103FC000469A91B24598FDF7F1FC45A8FEF71AFB19
:103FD00002E00AA001F0DAF849B030BD2F62726F3A
:103FE0006164636173742F6B313171354479627927
:103FF0007A452F7465737432000000005741524EA9
:104000000D0A0000F0B585B004460D4600260020DC
:10401000019002900390049006E054F826101FA02F
:1040200001F0B4F8701CC6B2AE42F6DB01A82B4614
:104030002246022100901420FEF7FBFE00282BD11F
:10404000029A91B20198FDF7B1FC4FF4FA70FDF7B6
:1040500071FB07463846FFF703F909280AD115A076
:1040600001F094F801A8FEF7CDFA00201849C870B5
:1040700005B0F0BD17A001F089F801A8FEF7C2FA5B
:104080001348C078401CC0B21149C870022801DD35
:1040900000F048FA0120EBE70120E9E7537562736D
:1040A000637269626520546F7069633A2025730DED
:1040B0000A000000546970733A094D51545420535A
:1040C0007562736372696265204F4B0D0A000000D0
:1040D000B05D0020546970733A094D515454205317
:1040E0007562736372696265204572720D0A000021
:1040F0007047000029B1064AD2690243044BDA61D5
:1041000004E0034AD2698243014BDA617047000040
:104110000010024029B1064A12690243044B1A6199
:1041200004E0034A12698243014B1A6170470000A0
:104130000010024029B1064A92690243044B9A6179
:1041400004E0034A92698243014B9A617047000080
:104150000010024029B1064AD2680243044BDA60DB
:1041600004E0034AD2688243014BDA6070470000E2
:104170000010024030B500210022002400232D4D04
:104180006D6805F00C0121B1042905D0082923D15F
:1041900005E0294D056022E0274D05601FE0254D13
:1041A0006D6805F47012234D6D6805F480340225A6
:1041B00005EB92421CB9214D554305600BE01D4DA6
:1041C0006D6805F400351DB11C4D5543056002E0D6
:1041D000194D5543056002E0174D056000BF00BF53
:1041E000144D6D6805F0F0010909154D6B5C05680B
:1041F000DD4045600F4D6D6805F4E061090A104D22
:104200006B5C4568DD4085600A4D6D6805F4605162
:10421000C90A0B4D6B5C4568DD40C560054D6D6896
:1042200005F44041890B074D6B5CC568B5FBF3F5A0
:10423000056130BD0010024000127A0000093D0007
:104240006A0A00207A0A002070B504221149124837
:10425000006800F0C5F90F480068FCF793FC0446BD
:1042600022460B460C4801680CA000F08FFF042288
:1042700010491148006800F0B3F90E480068FCF7D7
:1042800081FC044622460B460B4801680BA000F057
:104290007DFF70BDAC0A0020580A002031B5D8D689
:1042A000B73A3078255820B6C1C8A13A252E3666CF
:1042B000200D0A00B00A00205C0A002032B5D8D6D2
:1042C000B73A3078255820B6C1C8A13A252E3666AF
:1042D000200D0A002DE9F05F8346FDF745FD40F211
:1042E0004B1100FB01FA5046FCF7D6FB804600223A
:1042F000104BFCF7E2FA064600220F4BFCF74FFB8F
:104300000446FCF726FC0D49888002F07DFD02F092
:1043100069FE0A488079012802D103F025FA05E0F8
:104320000748084908600848084908600120BDE8B6
:10433000F09F00000000F03F00408F40A20A0020E4
:10434000B721D042AC0A00204642F541B00A002015
:1043500070B505460C46FFF777FF0020207001205E
:1043600070BD000008B501210820FFF7E3FE202002
:10437000ADF8000004208DF8030069460148FDF700
:1043800012FC08BD000C014008B501210820FFF710
:10439000D1FE2020ADF8000003208DF8020010208F
:1043A0008DF8030069460248FDF7FDFB08BD0000DB
:1043B000000C0140704710B500F002F810BD00007D
:1043C0000CB50020019000903348006840F4803024
:1043D0003149086000BF3048006800F400300090A8
:1043E0000198401C0190009818B90198B0F5A06F91
:1043F000F1D12948006800F4003010B1012000908C
:1044000001E0002000900098012843D12348006873
:1044100040F01000214908600846006820F00300C1
:1044200008600846006840F0020008601A484068CA
:10443000194948600846406848600846406840F4AA
:10444000806048600846406820F47C104860084658
:10445000406840F4E81048600846006840F080700A
:10446000086000BF0C48006800F000700028F9D018
:104470000948406820F00300074948600846406842
:1044800040F00200486000BF0348406800F00C00A4
:104490000828F9D10CBD00000010024000200240A5
:1044A00010B501234CF250320D490E4803F024FBA5
:1044B000012332220C490D4803F01EFB012340F674
:1044C000C4120B490B4803F017FB064803F044FBEA
:1044D000064803F041FB074803F03EFB10BD000017
:1044E00099790008B0220020AD790008C022002090
:1044F000D57A0008D0220020042808D14FF0E0210E
:10450000096941F004014FF0E022116107E04FF02A
:10451000E021096921F004014FF0E02211617047A8
:1045200070470000012080F3138800BF00BF0748D8
:10453000006800F4E06006490843001D0349086074
:10454000BFF34F8F00BF00BFFEE700000CED00E09F
:104550000000FA0510B51348006840F00100114949
:10456000086008464068104908400E4948600846FF
:1045700000680E4908400B4908600846006820F4AE
:10458000802008600846406820F4FE0048604FF430
:104590001F008860FFF70FFF4FF0006004490860BC
:1045A00010BD0000001002400000FFF8FFFFF6FE03
:1045B00008ED00E010B501210820FFF7BBFD012147
:1045C0000846FFF7B7FD01210348FDF777FB0121FE
:1045D0000248FDF773FB10BD0004300000023000FC
:1045E00030B503460D480488B3F1006F01D20120B5
:1045F00030BD4FF0006000EB8420984201D20220D1
:10460000F6E703E018780870491C5B1C101EA2F145
:104610000105AAB2F6D100BFEAE70000E0F7FF1FEC
:104620002DE9F84F8046894616465648B0F800A056
:10463000A8F1006B4FEADB25CBF30A00009000984D
:10464000C0F50067B8F1006F02D20120BDE8F88F15
:104650004FF0006000EB8A20404501D20120F5E7D1
:1046600049484A4948604A484860BE4200DC3746EB
:104670007DE0484803F036FB08B10220E6E74FF042
:10468000006101EBC5200A144349FFF7A9FF414827
:1046900003F028FB08B10220D8E73C48006940F04D
:1046A00002003A4908614FF0006000EBC520486104
:1046B0000846006940F040000861364803F012FBEC
:1046C00008B10220C2E73148006941F6FD71084097
:1046D0002E490861002007E019F8002000990144E4
:1046E0002D4B5A54411C88B2B842F5DB00242AE015
:1046F000284803F0F7FA08B10220A7E72348006929
:1047000040F0010021490861234810F814000121FC
:1047100001EB4401204A515C40EA01204FF0006166
:1047200001EBC52121F814001A4803F0DBFA08B1A7
:1047300002208BE71548006941F6FE7108401349D5
:104740000861601C84B2B4F5806FD1DBB74200D140
:104750000EE0B9446D1C00200090F01B86B2B6F547
:10476000006F02DD4FF4006000E03046074680E74E
:1047700000BF0648006940F080000449086100203D
:1047800064E70000E0F7FF1F2301674500200240B7
:10479000AB89EFCD888888008143002010B50121C6
:1047A000064800F08EF840B105480088401C0449D6
:1047B00008800121014800F072F810BD000400409B
:1047C000540000207FB505460C4601210220FFF76A
:1047D00091FCADF80850ADF804400020ADF80A0097
:1047E000ADF8060001A90E4800F088F81D208DF8EC
:1047F000000003208DF8010002208DF80200012046
:104800008DF803006846FEF7FBFD012211460448BF
:1048100000F068F80121024800F044F87FBD000074
:104820000004004010B50121184800F04AF858B3C0
:1048300017480068401C1649086003F0B5F9144891
:1048400000681921B0FBF1F201FB120008B9FCF776
:10485000BFFE0F4800684FF47A71B0FBF1F201FB24
:10486000120068B900200A490860FCF7A0FE094858
:104870000078002804DD07480078401E05490870CC
:104880000121024800F00BF810BD000000080040B4
:10489000C00A0020980A0020CA4302827047CA4317
:1048A0000282704721B1028842F00102028004E0D6
:1048B00002884FF6FE731A40028070470146888CCA
:1048C000704730B50246002000230024158A05EA0F
:1048D0000103958905EA010413B10CB1012000E040
:1048E000002030BD1AB183890B43838102E08389A4
:1048F0008B438381704781847047000000220288C7
:104900001D4B98420ED01D4B98420BD0B0F1804FFA
:1049100008D01B4B984205D01A4B984202D01A4B34
:10492000984204D14FF68F731A404B881A43174BA5
:10493000984207D0164B984204D04FF6FF431A40D6
:10494000CB881A4302808B8883850B8803850A4BAA
:1049500098420BD0094B984208D00E4B984205D094
:104960000D4B984202D00D4B984201D10B7A038631
:104970000123838270470000002C01400034014075
:104980000004004000080040000C004000100040FF
:104990000014004000400140004401400048014034
:1049A0000146022901D1024800BF00BF7047000044
:1049B0000008004010B540F225511D4800F021F9D3
:1049C00010B31B4800F0D8F9C4B21A48008800F4AC
:1049D0000040C8B91748008800F4804060B10A2C34
:1049E00003D000201349088020E01248008840F4DA
:1049F00000401049088019E00D2C06D10D480088B0
:104A000040F480400B49088010E00A480088C0F359
:104A10000D0009490C5407480088401C05490880CE
:104A200008460088C72801DD0020088010BD00006E
:104A300000380140680A0020814B002010B540F288
:104A40002551204800F0DDF8002839D01D4800F03D
:104A500093F9C4B2242C02D100201B4908801A48C3
:104A600001880088401C184A108018484454007877
:104A700024281ED1154800794D281AD113484079B1
:104A8000432816D10A2C14D150211148FBF78BFB77
:104A90000D4802880D490E48FBF76CFB01200C49BC
:104AA00081F85000002008490880C8210748FBF71A
:104AB0007AFB05480088C82802DBC8200249088024
:104AC00010BD00000044004086000020B9420020D4
:104AD0004042002010B540F225510E4800F091F8F8
:104AE000B0B10D480088FF2802D900200A4908808B
:104AF0000848001D0088C1B2074802880088401C91
:104B0000054B1880054881542021024800F008F820
:104B100010BD0000004800407E0A0020AD54002077
:104B200001F40072B2F5007F00D100BFCA430280D9
:104B3000704721B1828942F40052828104E0828967
:104B40004DF6FF731A4082817047000010B504468D
:104B50002048844209D101218803FFF7FBFA002194
:104B60004FF48040FFF7F6FA32E01B48844209D147
:104B700001214804FFF7CEFA00214FF40030FFF77F
:104B8000C9FA25E01548844209D101218804FFF7BC
:104B9000C1FA00214FF48020FFF7BCFA18E010485A
:104BA000844209D10121C804FFF7B4FA00214FF46F
:104BB0000020FFF7AFFA0BE00A48844208D1012138
:104BC0000805FFF7A7FA00214FF48010FFF7A2FABB
:104BD00010BD000000380140004400400048004083
:104BE000004C00400050004002460020B1F5007F1C
:104BF00000D100BF13880B400BB1012000E0002062
:104C0000704770B50246002400230025002040F6BE
:104C10006A16B14200D100BFC1F3421501F01F0373
:104C2000012606FA03F3012D02D19689334006E0EE
:104C3000022D02D1168A334001E0968A33400C12CD
:104C4000012606FA04F41688344013B10CB1012091
:104C500000E0002070BDF0B50346002400260025CA
:104C6000002040F66A17B94200D100BF1846C1F3D0
:104C7000421401F01F06012707FA06F5012C01D1A5
:104C80000C3004E0022C01D1103000E014301AB1D5
:104C900007682F43076002E00768AF430760F0BD75
:104CA0002DE9F04786B005460E460024A24600BF17
:104CB000A1460027B08900B100BF2F462C8A4CF6D0
:104CC000FF700440F08804432C82AC894EF6F31048
:104CD0000440B08831890843718908430443AC819A
:104CE000AC8A4FF6FF400440B0890443AC8201A86F
:104CF000FFF740FA1F48874202D1DDF810A001E01B
:104D0000DDF80CA0A88900F4004040B10AEBCA000D
:104D100000EB0A1031684900B0FBF1F807E00AEB3C
:104D2000CA0000EB0A1031688900B0FBF1F864207A
:104D3000B8FBF0F004012009642101FB1089A88967
:104D400000F4004040B1322000EBC900B0FBF1F0AC
:104D500000F00700044308E0322000EB0910642152
:104D6000B0FBF1F000F00F0004432C8106B0BDE869
:104D7000F08700000038014001468888C0F3080031
:104D80007047C1F3080282807047000010B51A48CE
:104D90008078012808D01848C078012804D0164827
:104DA0008088B0F5FA7F06DA14480068C0431449D9
:104DB000C1F8840102E00020104908601148007821
:104DC000C0B110480078012806D0022808D0032876
:104DD0000AD004280AD108E00120FFF7B5F805E061
:104DE0000220FFF7B1F801E000E000BF00BF0020A3
:104DF00004490870012010BDA20A0020840121424C
:104E000000002142B05D002000B58DB02CA16846A5
:104E100000F0CCF92E48006800281DDD2C48006801
:104E2000962819DA2B480078B0B129482AA10268DF
:104E3000684600F0BBF96A4600210846FEF7A0FC70
:104E400029482AA10268684600F0B0F96A460221A2
:104E50000020FEF795FC13E000221FA1684600F039
:104E6000A5F96A4600210846FEF78AFC00221FA128
:104E7000684600F09BF96A4602210020FEF780FC9C
:104E80001E48C07820B91EA1684600F08FF903E0E3
:104E90001FA1684600F08AF96A4604210020FEF747
:104EA0006FFC164882881EA1684600F07FF96A46AA
:104EB00006210020FEF764FC01200DB000BD0000BB
:104EC0002D2D2D204D41583330313032202D2D00E5
:104ED0000C0000200800002048656172743A20250B
:104EE00030336420202020000400002053704F3213
:104EF000203A20253033642020202000A20A002000
:104F0000C0CFC8CBD7B4CCAC203A20D5FDB3A300DA
:104F1000C0CFC8CBD7B4CCAC203A20B5F8B5B900D7
:104F2000BEE0C0EB203A2025303564206D6D0000D6
:104F300000BFFEE710B586B00446012144F204002C
:104F4000FFF7F8F84FF40070ADF8140003208DF867
:104F5000160018208DF8170005A91C48FCF723FE41
:104F60004FF48060ADF8140004208DF8170005A9F7
:104F70001648FCF718FE25208DF8000003208DF858
:104F800001008DF8020001208DF803006846FEF74D
:104F900037FA01940020ADF80800ADF80A00ADF82A
:104FA0000C00ADF810000C20ADF80E0001A9084867
:104FB000FFF776FE012240F225510548FFF74BFE30
:104FC00001210348FFF7B5FD06B010BD0008014000
:104FD0000038014010B586B0044601210420FFF7D7
:104FE000A9F801214804FFF785F82448FFF7AEFD32
:104FF0000420ADF8100003208DF8120018208DF861
:10500000130004A91E48FCF7CEFD0820ADF81000DF
:1050100004208DF8130004A91948FCF7C4FD00947E
:105020000020ADF80400ADF80600ADF80800ADF8BA
:105030000C000C20ADF80A0069461048FFF730FE5E
:1050400001210E48FFF775FD012240F225510B4862
:10505000FFF701FE26208DF8140002208DF81500C0
:1050600003208DF8160001208DF8170005A8FEF723
:10507000C7F9FCF79FFA06B010BD000000440040DD
:105080000008014010B586B0044601210820FFF752
:1050900051F801218804FFF72DF818208DF817002A
:1050A0004FF48060ADF8140003208DF8160005A9B8
:1050B0001D48FCF778FD04208DF817004002ADF87C
:1050C000140003208DF8160005A91748FCF76BFDA6
:1050D00001940020ADF810000C20ADF80E00002067
:1050E000ADF80C00ADF80A00ADF8080001A90F48B2
:1050F000FFF7D6FD01210D48FFF71BFD012240F20D
:1051000025510A48FFF7A7FD27208DF80000012050
:105110008DF803008DF801008DF802006846FEF757
:105120006FF906B010BD0000000C014000480040BF
:1051300070B504460D4600260DE014F8011B074823
:10514000FFF71FFE00BF40210448FFF74DFD002878
:10515000F9D0701C86B2AE42EFDB70BD0048004053
:1051600010B50422054906480068FFF759FA0422E1
:10517000044905480068FFF753FA10BDAC0A002047
:10518000580A0020B00A00205C0A00200FB4054B2A
:1051900010B503A9044A029800F0CEF910BC5DF8DE
:1051A00014FB0000D5610008640A00200FB4084B0E
:1051B00010B504A902AA039800F0BEF9044602A99A
:1051C000002000F050FD204610BC5DF814FB0000EC
:1051D000675C0008490050EAC12018BF04204A0D4E
:1051E00018BF40F0010040F2FF72B2EB515F08BF00
:1051F00040F00200012808BF0520704730B528B1F3
:10520000144C031F002021680A4605E0084630BD03
:105210009A4203D810465268002AF9D1002800D0DB
:1052200041680BD00468A3EB0005A54204D11B68BC
:105230001C440346046002E0436000E023603AB18E
:105240001C68D51AA54203D115682C441C6052680D
:105250005A6030BDD00A00202DE9F0414F1E00EB0E
:10526000C7010446D1E9000115461E4637F0060283
:105270000DD02A463346FBF720FB7F1E04EBC70305
:10528000D3E90023FBF772FA37F00602F1D1022FBF
:1052900025D0042F13D0062F18BFBDE8F0812A4671
:1052A0003346FBF70AFBD4E90A23FBF75FFA2A46E9
:1052B0003346FBF702FBD4E90823FBF757FA2A46EB
:1052C0003346FBF7FAFAD4E90623FBF74FFA2A46EE
:1052D0003346FBF7F2FAD4E90423FBF747FA2A46F0
:1052E0003346FBF7EAFAD4E90223FBF73FFA2A46F2
:1052F0003346FBF7E2FAD4E90023BDE8F041FBF7BF
:1053000035BA00002DE9F04782460F4C10480D4E8B
:105310000E4F001B4FF0000820F007054FF0010969
:1053200000221146504601F0A5F8002802D130684D
:1053300010B10020BDE8F0873C60C4E90058C6F811
:105340000090EDE7D40A0020CC5D0020D00A0020B8
:10535000C86900200122FBF7EFBD0000024A0020CF
:105360001107FBF7E9BD000001FDFFFF01480068E0
:1053700070470000D80A002002E008C8121F08C1C8
:10538000002AFAD170477047002001E001C1121FC6
:10539000002AFBD1704700000149086070470000F7
:1053A000D80A00202DE9FF5F82B00021DDE904303A
:1053B000020DDDF840B0034318D044F61050A2F2BD
:1053C000FF3242431514119801281FD0A5EB0B00A2
:1053D000401C5FEA000A4FF000064E4FDFF838919C
:1053E000B046504615D5CAF1000413E011980124C7
:1053F0004AA3012801D16FEA0B010298119AC0E972
:105400000031C0E9024206B0BDE8F09FCBF10000D8
:10541000DFE704460021404A491842EB0450CDE939
:10542000001012E0E00707D032463B4640464946AE
:10543000FBF743FA8046894632463B4610461946FA
:10544000FBF73BFA06460F466410002CEAD1DDE973
:105450000401DDE90023BAF1000F06DAFBF72DFAAB
:1054600042464B46FBF729FA05E0FBF798FA42461D
:105470004B46FBF794FA04460E460022284BFBF7F6
:10548000ADFB03D84FF0FF30014607E00022254B6B
:1054900020463146FBF76AF9FBF7C2FD102409E00C
:1054A000002C0ADB0A220023FBF7E2FB039B3032CD
:1054B0001A55641E50EA0102F2D1641C039AC4F129
:1054C00011031444119A012A03D0012208430DD17B
:1054D0000AE0084304D000204FF0110B119072E74E
:1054E000A3EB0B056D1E0DE05B4504DD4FF00002E4
:1054F00005F1010504E003DA4FF00002A5F1010512
:10550000002AECD002981199C0E90231C0E90045A7
:1055100079E70000000014400000F03F3000000078
:105520000000F0430000E03F30380A2801D201209B
:1055300070470020704700002DE9FF4F95B09B4653
:105540008946064600250FE2252877D10024274604
:10555000F84A0121059400E0044316F8013F203B7E
:1055600001FA03F01042F7D130782A2811D06FF0F9
:105570002F033078A0F13002092A16D8059A44F09A
:10558000020402EB820203EB42021044761C0590F7
:10559000EFE759F8042B0592002A03DA504244F44D
:1055A0000054059044F00204761C30782E2816D161
:1055B00016F8010F44F004042A280DD06FF02F02D2
:1055C0003078A0F13003092B09D807EB870302EBF1
:1055D0004303C718761CF3E759F8047B761C307830
:1055E0006C280FD006DC4C2817D068280DD06A280C
:1055F00014D104E0742810D07A280FD10DE044F4BF
:1056000000140AE044F4801401E044F44014727879
:10561000824202D104F58014761C761C307866280C
:105620000BD013DC582877D009DC002875D045282A
:10563000F6D04628F4D047281AD19DE118E0632817
:1056400035D0642879D0652812D195E1702873D0BF
:1056500008DC6728F1D069286FD06E280DD06F283C
:1056600006D1B5E073282CD0752875D0782874D071
:105670005A46179990476D1C75E1C4F302500228F1
:1056800009D003280DD0D9F8001004280DD00D60E2
:1056900009F1040967E1D9F80010EA17C1E90052DD
:1056A000F6E7D9F800100D80F2E70D70F0E719F871
:1056B000041B8DF8001000208DF80100EA4601203F
:1056C00003E059F804AB4FF0FF3061074FF00001E1
:1056D00002D40DE008F101018846B9420FDA804595
:1056E000F8DB1AF808100029F4D108E008F10101EC
:1056F00088468142FADB1AF808100029F6D105988D
:105700005B46A0EB080721463846179A00F094FA4A
:10571000284400EB080507E04DE029E10DE01AF808
:10572000010B5A4617999047B8F10108F7D25B462A
:1057300021463846179A13E142E00A220092C4F348
:1057400002524FF0000A022A08D059F804CB032A6B
:105750004FEAEC710AD00DE029E02AE009F10701D7
:1057600021F00702F2E802C1914609E00FFA8CFC31
:105770004FEAEC71042A03D14FFA8CFC4FEAEC712A
:10578000002907DA0A460021DCF1000C61EB020176
:105790002D2202E0220504D52B228DF804200122BF
:1057A00003E0E20701D02022F7E7904659E00A2102
:1057B00002E010220DE010214FF0000A00910BE0F2
:1057C00010224FF0000A44F004040827009203E07E
:1057D00008224FF0000A0092C4F30252022A05D0B8
:1057E00059F804CB0021032A08D009E009F1070188
:1057F00021F00702F2E802C1914605E01FFA8CFC95
:10580000042A01D10CF0FF0C4FF00008220728D524
:10581000702806D0009B83F0100353EA0A0305D0DA
:105820000EE040228DF80420012208E05CEA01022B
:1058300006D030228DF804208DF805000222904613
:10584000009B83F0080353EA0A030AD15CEA0102D1
:1058500001D1620705D530228DF804204FF00108F0
:105860007F1E582804D034A003900EA802900DE0AB
:1058700036A0F9E753466046009AFBF7F9F98446EB
:105880000398825C0298401E029002705CEA01005C
:10589000F0D1029806A9081A00F1200A600702D583
:1058A00024F4803400E00127574502DDA7EB0A000D
:1058B00000E0002000EB0A01009005984144401AE6
:1058C0000590E00306D45B462146179A059800F040
:1058D000B3F90544002706E001A85A46C05D1799B0
:1058E00090476D1C7F1C4745F6DBE0030CD55B46FB
:1058F0002146179A059800F09FF9054404E03020EE
:105900005A46179990476D1C0099481E009000292F
:10591000F5DC08E0029802995A460078491C029189
:10592000179990476D1CBAF10001AAF1010AF1DC48
:1059300065E1000009280100303132333435363753
:1059400038396162636465660000000030313233CB
:10595000343536373839414243444546000000006B
:1059600000F058F90544761C307800287FF4ECAD3F
:1059700019B02846BDE8F08F620700D4062709F168
:10598000070222F0070CFCE80223E14603F000487E
:105990005FEA080C02D00FF2702C0DE05FEA045CA5
:1059A00002D50FF2682C07E05FEAC47C02D00FF248
:1059B000602C01E0AFF2700C4FF0FF3823F0004391
:1059C000CDF850C065280CD006DC452809D0462803
:1059D0001DD047283DD13DE0662818D067287ED1EC
:1059E00038E00021112F01DB112000E0781CCDE907
:1059F000000106A90EA8FFF7D5FCDDE90F010E9AFC
:105A000003910021009207F1010A04914DE04FF04B
:105A100000400097CDE9011006A90EA8FFF7C2FCCF
:105A2000DDE90F0203920E9B11990022DDF80CA014
:105A30000093049211B9791C00EB010AB7EB0A003C
:105A400004D4C0F1FF3007F1010A0490AAEB07006B
:105A5000019044E0012F00DA01270021112F01DD20
:105A6000112000E03846CDE9000106A90EA8FFF795
:105A700099FCDDE90F010E9A039100210491009237
:105A8000BA4621070CD40399514500DA8A46BAF187
:105A9000010F05DD009AAAF10101515C302908D0FF
:105AA000B84202DA10F1040F06DA0121CDE9011043
:105AB00015E0AAF10101E9E7002805DC0499014499
:105AC0000491AAEB000102E0411C514500DD8A4629
:105AD0000499401A401C01904FF0004002902007AA
